{
  "address": "0xBe72Ed0EB8Af6d52c0Be64Ca908f81E0100390C2",
  "abi": [
    {
      "inputs": [],
      "stateMutability": "nonpayable",
      "type": "constructor"
    },
    {
      "anonymous": false,
      "inputs": [
        {
          "indexed": true,
          "internalType": "address",
          "name": "owner",
          "type": "address"
        },
        {
          "indexed": true,
          "internalType": "address",
          "name": "approved",
          "type": "address"
        },
        {
          "indexed": true,
          "internalType": "uint256",
          "name": "tokenId",
          "type": "uint256"
        }
      ],
      "name": "Approval",
      "type": "event"
    },
    {
      "anonymous": false,
      "inputs": [
        {
          "indexed": true,
          "internalType": "address",
          "name": "owner",
          "type": "address"
        },
        {
          "indexed": true,
          "internalType": "address",
          "name": "operator",
          "type": "address"
        },
        {
          "indexed": false,
          "internalType": "bool",
          "name": "approved",
          "type": "bool"
        }
      ],
      "name": "ApprovalForAll",
      "type": "event"
    },
    {
      "anonymous": false,
      "inputs": [
        {
          "indexed": true,
          "internalType": "address",
          "name": "from",
          "type": "address"
        },
        {
          "indexed": true,
          "internalType": "address",
          "name": "to",
          "type": "address"
        },
        {
          "indexed": true,
          "internalType": "uint256",
          "name": "tokenId",
          "type": "uint256"
        }
      ],
      "name": "Transfer",
      "type": "event"
    },
    {
      "inputs": [
        {
          "internalType": "address",
          "name": "to",
          "type": "address"
        },
        {
          "internalType": "uint256",
          "name": "tokenId",
          "type": "uint256"
        }
      ],
      "name": "approve",
      "outputs": [],
      "stateMutability": "nonpayable",
      "type": "function"
    },
    {
      "inputs": [
        {
          "internalType": "address",
          "name": "owner",
          "type": "address"
        }
      ],
      "name": "balanceOf",
      "outputs": [
        {
          "internalType": "uint256",
          "name": "",
          "type": "uint256"
        }
      ],
      "stateMutability": "view",
      "type": "function"
    },
    {
      "inputs": [
        {
          "internalType": "uint256",
          "name": "tokenId",
          "type": "uint256"
        }
      ],
      "name": "getApproved",
      "outputs": [
        {
          "internalType": "address",
          "name": "",
          "type": "address"
        }
      ],
      "stateMutability": "view",
      "type": "function"
    },
    {
      "inputs": [
        {
          "internalType": "address",
          "name": "owner",
          "type": "address"
        },
        {
          "internalType": "address",
          "name": "operator",
          "type": "address"
        }
      ],
      "name": "isApprovedForAll",
      "outputs": [
        {
          "internalType": "bool",
          "name": "",
          "type": "bool"
        }
      ],
      "stateMutability": "view",
      "type": "function"
    },
    {
      "inputs": [
        {
          "internalType": "address",
          "name": "toAddr",
          "type": "address"
        },
        {
          "internalType": "uint256",
          "name": "tokenId",
          "type": "uint256"
        },
        {
          "internalType": "string",
          "name": "tokenURI",
          "type": "string"
        }
      ],
      "name": "mint",
      "outputs": [
        {
          "internalType": "uint256",
          "name": "",
          "type": "uint256"
        }
      ],
      "stateMutability": "nonpayable",
      "type": "function"
    },
    {
      "inputs": [],
      "name": "name",
      "outputs": [
        {
          "internalType": "string",
          "name": "",
          "type": "string"
        }
      ],
      "stateMutability": "view",
      "type": "function"
    },
    {
      "inputs": [
        {
          "internalType": "uint256",
          "name": "tokenId",
          "type": "uint256"
        }
      ],
      "name": "ownerOf",
      "outputs": [
        {
          "internalType": "address",
          "name": "",
          "type": "address"
        }
      ],
      "stateMutability": "view",
      "type": "function"
    },
    {
      "inputs": [
        {
          "internalType": "address",
          "name": "from",
          "type": "address"
        },
        {
          "internalType": "address",
          "name": "to",
          "type": "address"
        },
        {
          "internalType": "uint256",
          "name": "tokenId",
          "type": "uint256"
        }
      ],
      "name": "safeTransferFrom",
      "outputs": [],
      "stateMutability": "nonpayable",
      "type": "function"
    },
    {
      "inputs": [
        {
          "internalType": "address",
          "name": "from",
          "type": "address"
        },
        {
          "internalType": "address",
          "name": "to",
          "type": "address"
        },
        {
          "internalType": "uint256",
          "name": "tokenId",
          "type": "uint256"
        },
        {
          "internalType": "bytes",
          "name": "_data",
          "type": "bytes"
        }
      ],
      "name": "safeTransferFrom",
      "outputs": [],
      "stateMutability": "nonpayable",
      "type": "function"
    },
    {
      "inputs": [
        {
          "internalType": "address",
          "name": "operator",
          "type": "address"
        },
        {
          "internalType": "bool",
          "name": "approved",
          "type": "bool"
        }
      ],
      "name": "setApprovalForAll",
      "outputs": [],
      "stateMutability": "nonpayable",
      "type": "function"
    },
    {
      "inputs": [
        {
          "internalType": "bytes4",
          "name": "interfaceId",
          "type": "bytes4"
        }
      ],
      "name": "supportsInterface",
      "outputs": [
        {
          "internalType": "bool",
          "name": "",
          "type": "bool"
        }
      ],
      "stateMutability": "view",
      "type": "function"
    },
    {
      "inputs": [],
      "name": "symbol",
      "outputs": [
        {
          "internalType": "string",
          "name": "",
          "type": "string"
        }
      ],
      "stateMutability": "view",
      "type": "function"
    },
    {
      "inputs": [
        {
          "internalType": "uint256",
          "name": "tokenId",
          "type": "uint256"
        }
      ],
      "name": "tokenURI",
      "outputs": [
        {
          "internalType": "string",
          "name": "",
          "type": "string"
        }
      ],
      "stateMutability": "view",
      "type": "function"
    },
    {
      "inputs": [
        {
          "internalType": "address",
          "name": "from",
          "type": "address"
        },
        {
          "internalType": "address",
          "name": "to",
          "type": "address"
        },
        {
          "internalType": "uint256",
          "name": "tokenId",
          "type": "uint256"
        }
      ],
      "name": "transferFrom",
      "outputs": [],
      "stateMutability": "nonpayable",
      "type": "function"
    }
  ],
  "transactionHash": "0x9ad75682e0dc579d83b1e8cf414534e7d69fc452db521a0ca68125a0c252226a",
  "args": [],
  "numDeployments": 1,
  "solcInputHash": "307e99fd81dd473d3390d24a55878b99",
  "bytecode": "0x60806040523480156200001157600080fd5b506040518060400160405280600381526020017f6e796100000000000000000000000000000000000000000000000000000000008152506040518060400160405280600981526020017f43594245525f4341540000000000000000000000000000000000000000000000815250816000908051906020019062000096929190620000f9565b508060019080519060200190620000af929190620000f9565b50505033600760006101000a81548173ffffffffffffffffffffffffffffffffffffffff021916908373ffffffffffffffffffffffffffffffffffffffff1602179055506200020e565b8280546200010790620001a9565b90600052602060002090601f0160209004810192826200012b576000855562000177565b82601f106200014657805160ff191683800117855562000177565b8280016001018555821562000177579182015b828111156200017657825182559160200191906001019062000159565b5b5090506200018691906200018a565b5090565b5b80821115620001a55760008160009055506001016200018b565b5090565b60006002820490506001821680620001c257607f821691505b60208210811415620001d957620001d8620001df565b5b50919050565b7f4e487b7100000000000000000000000000000000000000000000000000000000600052602260045260246000fd5b612bd1806200021e6000396000f3fe608060405234801561001057600080fd5b50600436106100ea5760003560e01c806370a082311161008c578063b88d4fde11610066578063b88d4fde1461025b578063c87b56dd14610277578063d3fc9864146102a7578063e985e9c5146102d7576100ea565b806370a08231146101f157806395d89b4114610221578063a22cb4651461023f576100ea565b8063095ea7b3116100c8578063095ea7b31461016d57806323b872dd1461018957806342842e0e146101a55780636352211e146101c1576100ea565b806301ffc9a7146100ef57806306fdde031461011f578063081812fc1461013d575b600080fd5b61010960048036038101906101049190611c7e565b610307565b6040516101169190612084565b60405180910390f35b6101276103e9565b604051610134919061209f565b60405180910390f35b61015760048036038101906101529190611cd0565b61047b565b604051610164919061201d565b60405180910390f35b61018760048036038101906101829190611bdb565b610500565b005b6101a3600480360381019061019e9190611ad5565b610618565b005b6101bf60048036038101906101ba9190611ad5565b610678565b005b6101db60048036038101906101d69190611cd0565b610698565b6040516101e8919061201d565b60405180910390f35b61020b60048036038101906102069190611a70565b61074a565b60405161021891906122c1565b60405180910390f35b610229610802565b604051610236919061209f565b60405180910390f35b61025960048036038101906102549190611b9f565b610894565b005b61027560048036038101906102709190611b24565b6108aa565b005b610291600480360381019061028c9190611cd0565b61090c565b60405161029e919061209f565b60405180910390f35b6102c160048036038101906102bc9190611c17565b610a5e565b6040516102ce91906122c1565b60405180910390f35b6102f160048036038101906102ec9190611a99565b610ade565b6040516102fe9190612084565b60405180910390f35b60007f80ac58cd000000000000000000000000000000000000000000000000000000007bffffffffffffffffffffffffffffffffffffffffffffffffffffffff1916827bffffffffffffffffffffffffffffffffffffffffffffffffffffffff191614806103d257507f5b5e139f000000000000000000000000000000000000000000000000000000007bffffffffffffffffffffffffffffffffffffffffffffffffffffffff1916827bffffffffffffffffffffffffffffffffffffffffffffffffffffffff1916145b806103e257506103e182610b72565b5b9050919050565b6060600080546103f890612517565b80601f016020809104026020016040519081016040528092919081815260200182805461042490612517565b80156104715780601f1061044657610100808354040283529160200191610471565b820191906000526020600020905b81548152906001019060200180831161045457829003601f168201915b5050505050905090565b600061048682610bdc565b6104c5576040517f08c379a00000000000000000000000000000000000000000000000000000000081526004016104bc90612241565b60405180910390fd5b6004600083815260200190815260200160002060009054906101000a900473ffffffffffffffffffffffffffffffffffffffff169050919050565b600061050b82610698565b90508073ffffffffffffffffffffffffffffffffffffffff168373ffffffffffffffffffffffffffffffffffffffff16141561057c576040517f08c379a000000000000000000000000000000000000000000000000000000000815260040161057390612281565b60405180910390fd5b8073ffffffffffffffffffffffffffffffffffffffff1661059b610c48565b73ffffffffffffffffffffffffffffffffffffffff1614806105ca57506105c9816105c4610c48565b610ade565b5b610609576040517f08c379a000000000000000000000000000000000000000000000000000000000815260040161060090612181565b60405180910390fd5b6106138383610c50565b505050565b610629610623610c48565b82610d09565b610668576040517f08c379a000000000000000000000000000000000000000000000000000000000815260040161065f906122a1565b60405180910390fd5b610673838383610de7565b505050565b610693838383604051806020016040528060008152506108aa565b505050565b6000806002600084815260200190815260200160002060009054906101000a900473ffffffffffffffffffffffffffffffffffffffff169050600073ffffffffffffffffffffffffffffffffffffffff168173ffffffffffffffffffffffffffffffffffffffff161415610741576040517f08c379a0000000000000000000000000000000000000000000000000000000008152600401610738906121c1565b60405180910390fd5b80915050919050565b60008073ffffffffffffffffffffffffffffffffffffffff168273ffffffffffffffffffffffffffffffffffffffff1614156107bb576040517f08c379a00000000000000000000000000000000000000000000000000000000081526004016107b2906121a1565b60405180910390fd5b600360008373ffffffffffffffffffffffffffffffffffffffff1673ffffffffffffffffffffffffffffffffffffffff168152602001908152602001600020549050919050565b60606001805461081190612517565b80601f016020809104026020016040519081016040528092919081815260200182805461083d90612517565b801561088a5780601f1061085f5761010080835404028352916020019161088a565b820191906000526020600020905b81548152906001019060200180831161086d57829003601f168201915b5050505050905090565b6108a661089f610c48565b838361104e565b5050565b6108bb6108b5610c48565b83610d09565b6108fa576040517f08c379a00000000000000000000000000000000000000000000000000000000081526004016108f1906122a1565b60405180910390fd5b610906848484846111bb565b50505050565b606061091782610bdc565b610956576040517f08c379a000000000000000000000000000000000000000000000000000000000815260040161094d90612221565b60405180910390fd5b600060066000848152602001908152602001600020805461097690612517565b80601f01602080910402602001604051908101604052809291908181526020018280546109a290612517565b80156109ef5780601f106109c4576101008083540402835291602001916109ef565b820191906000526020600020905b8154815290600101906020018083116109d257829003601f168201915b505050505090506000610a00611217565b9050600081511415610a16578192505050610a59565b600082511115610a4b578082604051602001610a33929190611ff9565b60405160208183030381529060405292505050610a59565b610a548461122e565b925050505b919050565b6000600760009054906101000a900473ffffffffffffffffffffffffffffffffffffffff1673ffffffffffffffffffffffffffffffffffffffff163373ffffffffffffffffffffffffffffffffffffffff1614610aba57600080fd5b6000839050610ac985826112d5565b610ad381846114af565b809150509392505050565b6000600560008473ffffffffffffffffffffffffffffffffffffffff1673ffffffffffffffffffffffffffffffffffffffff16815260200190815260200160002060008373ffffffffffffffffffffffffffffffffffffffff1673ffffffffffffffffffffffffffffffffffffffff16815260200190815260200160002060009054906101000a900460ff16905092915050565b60007f01ffc9a7000000000000000000000000000000000000000000000000000000007bffffffffffffffffffffffffffffffffffffffffffffffffffffffff1916827bffffffffffffffffffffffffffffffffffffffffffffffffffffffff1916149050919050565b60008073ffffffffffffffffffffffffffffffffffffffff166002600084815260200190815260200160002060009054906101000a900473ffffffffffffffffffffffffffffffffffffffff1673ffffffffffffffffffffffffffffffffffffffff1614159050919050565b600033905090565b816004600083815260200190815260200160002060006101000a81548173ffffffffffffffffffffffffffffffffffffffff021916908373ffffffffffffffffffffffffffffffffffffffff160217905550808273ffffffffffffffffffffffffffffffffffffffff16610cc383610698565b73ffffffffffffffffffffffffffffffffffffffff167f8c5be1e5ebec7d5bd14f71427d1e84f3dd0314c0f7b2291e5b200ac8c7c3b92560405160405180910390a45050565b6000610d1482610bdc565b610d53576040517f08c379a0000000000000000000000000000000000000000000000000000000008152600401610d4a90612161565b60405180910390fd5b6000610d5e83610698565b90508073ffffffffffffffffffffffffffffffffffffffff168473ffffffffffffffffffffffffffffffffffffffff161480610dcd57508373ffffffffffffffffffffffffffffffffffffffff16610db58461047b565b73ffffffffffffffffffffffffffffffffffffffff16145b80610dde5750610ddd8185610ade565b5b91505092915050565b8273ffffffffffffffffffffffffffffffffffffffff16610e0782610698565b73ffffffffffffffffffffffffffffffffffffffff1614610e5d576040517f08c379a0000000000000000000000000000000000000000000000000000000008152600401610e54906120e1565b60405180910390fd5b600073ffffffffffffffffffffffffffffffffffffffff168273ffffffffffffffffffffffffffffffffffffffff161415610ecd576040517f08c379a0000000000000000000000000000000000000000000000000000000008152600401610ec490612121565b60405180910390fd5b610ed8838383611523565b610ee3600082610c50565b6001600360008573ffffffffffffffffffffffffffffffffffffffff1673ffffffffffffffffffffffffffffffffffffffff1681526020019081526020016000206000828254610f33919061242d565b925050819055506001600360008473ffffffffffffffffffffffffffffffffffffffff1673ffffffffffffffffffffffffffffffffffffffff1681526020019081526020016000206000828254610f8a91906123a6565b92505081905550816002600083815260200190815260200160002060006101000a81548173ffffffffffffffffffffffffffffffffffffffff021916908373ffffffffffffffffffffffffffffffffffffffff160217905550808273ffffffffffffffffffffffffffffffffffffffff168473ffffffffffffffffffffffffffffffffffffffff167fddf252ad1be2c89b69c2b068fc378daa952ba7f163c4a11628f55a4df523b3ef60405160405180910390a4611049838383611528565b505050565b8173ffffffffffffffffffffffffffffffffffffffff168373ffffffffffffffffffffffffffffffffffffffff1614156110bd576040517f08c379a00000000000000000000000000000000000000000000000000000000081526004016110b490612141565b60405180910390fd5b80600560008573ffffffffffffffffffffffffffffffffffffffff1673ffffffffffffffffffffffffffffffffffffffff16815260200190815260200160002060008473ffffffffffffffffffffffffffffffffffffffff1673ffffffffffffffffffffffffffffffffffffffff16815260200190815260200160002060006101000a81548160ff0219169083151502179055508173ffffffffffffffffffffffffffffffffffffffff168373ffffffffffffffffffffffffffffffffffffffff167f17307eab39ab6107e8899845ad3d59bd9653f200f220920489ca2b5937696c31836040516111ae9190612084565b60405180910390a3505050565b6111c6848484610de7565b6111d28484848461152d565b611211576040517f08c379a0000000000000000000000000000000000000000000000000000000008152600401611208906120c1565b60405180910390fd5b50505050565b606060405180602001604052806000815250905090565b606061123982610bdc565b611278576040517f08c379a000000000000000000000000000000000000000000000000000000000815260040161126f90612261565b60405180910390fd5b6000611282611217565b905060008151116112a257604051806020016040528060008152506112cd565b806112ac846116c4565b6040516020016112bd929190611ff9565b6040516020818303038152906040525b915050919050565b600073ffffffffffffffffffffffffffffffffffffffff168273ffffffffffffffffffffffffffffffffffffffff161415611345576040517f08c379a000000000000000000000000000000000000000000000000000000000815260040161133c90612201565b60405180910390fd5b61134e81610bdc565b1561138e576040517f08c379a000000000000000000000000000000000000000000000000000000000815260040161138590612101565b60405180910390fd5b61139a60008383611523565b6001600360008473ffffffffffffffffffffffffffffffffffffffff1673ffffffffffffffffffffffffffffffffffffffff16815260200190815260200160002060008282546113ea91906123a6565b92505081905550816002600083815260200190815260200160002060006101000a81548173ffffffffffffffffffffffffffffffffffffffff021916908373ffffffffffffffffffffffffffffffffffffffff160217905550808273ffffffffffffffffffffffffffffffffffffffff16600073ffffffffffffffffffffffffffffffffffffffff167fddf252ad1be2c89b69c2b068fc378daa952ba7f163c4a11628f55a4df523b3ef60405160405180910390a46114ab60008383611528565b5050565b6114b882610bdc565b6114f7576040517f08c379a00000000000000000000000000000000000000000000000000000000081526004016114ee906121e1565b60405180910390fd5b8060066000848152602001908152602001600020908051906020019061151e929190611894565b505050565b505050565b505050565b600061154e8473ffffffffffffffffffffffffffffffffffffffff16611871565b156116b7578373ffffffffffffffffffffffffffffffffffffffff1663150b7a02611577610c48565b8786866040518563ffffffff1660e01b81526004016115999493929190612038565b602060405180830381600087803b1580156115b357600080fd5b505af19250505080156115e457506040513d601f19601f820116820180604052508101906115e19190611ca7565b60015b611667573d8060008114611614576040519150601f19603f3d011682016040523d82523d6000602084013e611619565b606091505b5060008151141561165f576040517f08c379a0000000000000000000000000000000000000000000000000000000008152600401611656906120c1565b60405180910390fd5b805181602001fd5b63150b7a0260e01b7bffffffffffffffffffffffffffffffffffffffffffffffffffffffff1916817bffffffffffffffffffffffffffffffffffffffffffffffffffffffff1916149150506116bc565b600190505b949350505050565b6060600082141561170c576040518060400160405280600181526020017f3000000000000000000000000000000000000000000000000000000000000000815250905061186c565b600082905060005b6000821461173e5780806117279061257a565b915050600a8261173791906123fc565b9150611714565b60008167ffffffffffffffff811115611780577f4e487b7100000000000000000000000000000000000000000000000000000000600052604160045260246000fd5b6040519080825280601f01601f1916602001820160405280156117b25781602001600182028036833780820191505090505b5090505b60008514611865576001826117cb919061242d565b9150600a856117da91906125c3565b60306117e691906123a6565b60f81b818381518110611822577f4e487b7100000000000000000000000000000000000000000000000000000000600052603260045260246000fd5b60200101907effffffffffffffffffffffffffffffffffffffffffffffffffffffffffffff1916908160001a905350600a8561185e91906123fc565b94506117b6565b8093505050505b919050565b6000808273ffffffffffffffffffffffffffffffffffffffff163b119050919050565b8280546118a090612517565b90600052602060002090601f0160209004810192826118c25760008555611909565b82601f106118db57805160ff1916838001178555611909565b82800160010185558215611909579182015b828111156119085782518255916020019190600101906118ed565b5b509050611916919061191a565b5090565b5b8082111561193357600081600090555060010161191b565b5090565b600061194a61194584612301565b6122dc565b90508281526020810184848401111561196257600080fd5b61196d8482856124d5565b509392505050565b600061198861198384612332565b6122dc565b9050828152602081018484840111156119a057600080fd5b6119ab8482856124d5565b509392505050565b6000813590506119c281612b3f565b92915050565b6000813590506119d781612b56565b92915050565b6000813590506119ec81612b6d565b92915050565b600081519050611a0181612b6d565b92915050565b600082601f830112611a1857600080fd5b8135611a28848260208601611937565b91505092915050565b600082601f830112611a4257600080fd5b8135611a52848260208601611975565b91505092915050565b600081359050611a6a81612b84565b92915050565b600060208284031215611a8257600080fd5b6000611a90848285016119b3565b91505092915050565b60008060408385031215611aac57600080fd5b6000611aba858286016119b3565b9250506020611acb858286016119b3565b9150509250929050565b600080600060608486031215611aea57600080fd5b6000611af8868287016119b3565b9350506020611b09868287016119b3565b9250506040611b1a86828701611a5b565b9150509250925092565b60008060008060808587031215611b3a57600080fd5b6000611b48878288016119b3565b9450506020611b59878288016119b3565b9350506040611b6a87828801611a5b565b925050606085013567ffffffffffffffff811115611b8757600080fd5b611b9387828801611a07565b91505092959194509250565b60008060408385031215611bb257600080fd5b6000611bc0858286016119b3565b9250506020611bd1858286016119c8565b9150509250929050565b60008060408385031215611bee57600080fd5b6000611bfc858286016119b3565b9250506020611c0d85828601611a5b565b9150509250929050565b600080600060608486031215611c2c57600080fd5b6000611c3a868287016119b3565b9350506020611c4b86828701611a5b565b925050604084013567ffffffffffffffff811115611c6857600080fd5b611c7486828701611a31565b9150509250925092565b600060208284031215611c9057600080fd5b6000611c9e848285016119dd565b91505092915050565b600060208284031215611cb957600080fd5b6000611cc7848285016119f2565b91505092915050565b600060208284031215611ce257600080fd5b6000611cf084828501611a5b565b91505092915050565b611d0281612461565b82525050565b611d1181612473565b82525050565b6000611d2282612363565b611d2c8185612379565b9350611d3c8185602086016124e4565b611d45816126b0565b840191505092915050565b6000611d5b8261236e565b611d65818561238a565b9350611d758185602086016124e4565b611d7e816126b0565b840191505092915050565b6000611d948261236e565b611d9e818561239b565b9350611dae8185602086016124e4565b80840191505092915050565b6000611dc760328361238a565b9150611dd2826126c1565b604082019050919050565b6000611dea60258361238a565b9150611df582612710565b604082019050919050565b6000611e0d601c8361238a565b9150611e188261275f565b602082019050919050565b6000611e3060248361238a565b9150611e3b82612788565b604082019050919050565b6000611e5360198361238a565b9150611e5e826127d7565b602082019050919050565b6000611e76602c8361238a565b9150611e8182612800565b604082019050919050565b6000611e9960388361238a565b9150611ea48261284f565b604082019050919050565b6000611ebc602a8361238a565b9150611ec78261289e565b604082019050919050565b6000611edf60298361238a565b9150611eea826128ed565b604082019050919050565b6000611f02602e8361238a565b9150611f0d8261293c565b604082019050919050565b6000611f2560208361238a565b9150611f308261298b565b602082019050919050565b6000611f4860318361238a565b9150611f53826129b4565b604082019050919050565b6000611f6b602c8361238a565b9150611f7682612a03565b604082019050919050565b6000611f8e602f8361238a565b9150611f9982612a52565b604082019050919050565b6000611fb160218361238a565b9150611fbc82612aa1565b604082019050919050565b6000611fd460318361238a565b9150611fdf82612af0565b604082019050919050565b611ff3816124cb565b82525050565b60006120058285611d89565b91506120118284611d89565b91508190509392505050565b60006020820190506120326000830184611cf9565b92915050565b600060808201905061204d6000830187611cf9565b61205a6020830186611cf9565b6120676040830185611fea565b81810360608301526120798184611d17565b905095945050505050565b60006020820190506120996000830184611d08565b92915050565b600060208201905081810360008301526120b98184611d50565b905092915050565b600060208201905081810360008301526120da81611dba565b9050919050565b600060208201905081810360008301526120fa81611ddd565b9050919050565b6000602082019050818103600083015261211a81611e00565b9050919050565b6000602082019050818103600083015261213a81611e23565b9050919050565b6000602082019050818103600083015261215a81611e46565b9050919050565b6000602082019050818103600083015261217a81611e69565b9050919050565b6000602082019050818103600083015261219a81611e8c565b9050919050565b600060208201905081810360008301526121ba81611eaf565b9050919050565b600060208201905081810360008301526121da81611ed2565b9050919050565b600060208201905081810360008301526121fa81611ef5565b9050919050565b6000602082019050818103600083015261221a81611f18565b9050919050565b6000602082019050818103600083015261223a81611f3b565b9050919050565b6000602082019050818103600083015261225a81611f5e565b9050919050565b6000602082019050818103600083015261227a81611f81565b9050919050565b6000602082019050818103600083015261229a81611fa4565b9050919050565b600060208201905081810360008301526122ba81611fc7565b9050919050565b60006020820190506122d66000830184611fea565b92915050565b60006122e66122f7565b90506122f28282612549565b919050565b6000604051905090565b600067ffffffffffffffff82111561231c5761231b612681565b5b612325826126b0565b9050602081019050919050565b600067ffffffffffffffff82111561234d5761234c612681565b5b612356826126b0565b9050602081019050919050565b600081519050919050565b600081519050919050565b600082825260208201905092915050565b600082825260208201905092915050565b600081905092915050565b60006123b1826124cb565b91506123bc836124cb565b9250827fffffffffffffffffffffffffffffffffffffffffffffffffffffffffffffffff038211156123f1576123f06125f4565b5b828201905092915050565b6000612407826124cb565b9150612412836124cb565b92508261242257612421612623565b5b828204905092915050565b6000612438826124cb565b9150612443836124cb565b925082821015612456576124556125f4565b5b828203905092915050565b600061246c826124ab565b9050919050565b60008115159050919050565b60007fffffffff0000000000000000000000000000000000000000000000000000000082169050919050565b600073ffffffffffffffffffffffffffffffffffffffff82169050919050565b6000819050919050565b82818337600083830152505050565b60005b838110156125025780820151818401526020810190506124e7565b83811115612511576000848401525b50505050565b6000600282049050600182168061252f57607f821691505b6020821081141561254357612542612652565b5b50919050565b612552826126b0565b810181811067ffffffffffffffff8211171561257157612570612681565b5b80604052505050565b6000612585826124cb565b91507fffffffffffffffffffffffffffffffffffffffffffffffffffffffffffffffff8214156125b8576125b76125f4565b5b600182019050919050565b60006125ce826124cb565b91506125d9836124cb565b9250826125e9576125e8612623565b5b828206905092915050565b7f4e487b7100000000000000000000000000000000000000000000000000000000600052601160045260246000fd5b7f4e487b7100000000000000000000000000000000000000000000000000000000600052601260045260246000fd5b7f4e487b7100000000000000000000000000000000000000000000000000000000600052602260045260246000fd5b7f4e487b7100000000000000000000000000000000000000000000000000000000600052604160045260246000fd5b6000601f19601f8301169050919050565b7f4552433732313a207472616e7366657220746f206e6f6e20455243373231526560008201527f63656976657220696d706c656d656e7465720000000000000000000000000000602082015250565b7f4552433732313a207472616e736665722066726f6d20696e636f72726563742060008201527f6f776e6572000000000000000000000000000000000000000000000000000000602082015250565b7f4552433732313a20746f6b656e20616c7265616479206d696e74656400000000600082015250565b7f4552433732313a207472616e7366657220746f20746865207a65726f2061646460008201527f7265737300000000000000000000000000000000000000000000000000000000602082015250565b7f4552433732313a20617070726f766520746f2063616c6c657200000000000000600082015250565b7f4552433732313a206f70657261746f7220717565727920666f72206e6f6e657860008201527f697374656e7420746f6b656e0000000000000000000000000000000000000000602082015250565b7f4552433732313a20617070726f76652063616c6c6572206973206e6f74206f7760008201527f6e6572206e6f7220617070726f76656420666f7220616c6c0000000000000000602082015250565b7f4552433732313a2062616c616e636520717565727920666f7220746865207a6560008201527f726f206164647265737300000000000000000000000000000000000000000000602082015250565b7f4552433732313a206f776e657220717565727920666f72206e6f6e657869737460008201527f656e7420746f6b656e0000000000000000000000000000000000000000000000602082015250565b7f45524337323155524953746f726167653a2055524920736574206f66206e6f6e60008201527f6578697374656e7420746f6b656e000000000000000000000000000000000000602082015250565b7f4552433732313a206d696e7420746f20746865207a65726f2061646472657373600082015250565b7f45524337323155524953746f726167653a2055524920717565727920666f722060008201527f6e6f6e6578697374656e7420746f6b656e000000000000000000000000000000602082015250565b7f4552433732313a20617070726f76656420717565727920666f72206e6f6e657860008201527f697374656e7420746f6b656e0000000000000000000000000000000000000000602082015250565b7f4552433732314d657461646174613a2055524920717565727920666f72206e6f60008201527f6e6578697374656e7420746f6b656e0000000000000000000000000000000000602082015250565b7f4552433732313a20617070726f76616c20746f2063757272656e74206f776e6560008201527f7200000000000000000000000000000000000000000000000000000000000000602082015250565b7f4552433732313a207472616e736665722063616c6c6572206973206e6f74206f60008201527f776e6572206e6f7220617070726f766564000000000000000000000000000000602082015250565b612b4881612461565b8114612b5357600080fd5b50565b612b5f81612473565b8114612b6a57600080fd5b50565b612b768161247f565b8114612b8157600080fd5b50565b612b8d816124cb565b8114612b9857600080fd5b5056fea264697066735822122053bda41951e499ec0c43d4a9444fbdf6acf90723ba3739112ec3c4c2c903e99a64736f6c63430008040033",
  "devdoc": {
    "kind": "dev",
    "methods": {
      "approve(address,uint256)": {
        "details": "See {IERC721-approve}."
      },
      "balanceOf(address)": {
        "details": "See {IERC721-balanceOf}."
      },
      "getApproved(uint256)": {
        "details": "See {IERC721-getApproved}."
      },
      "isApprovedForAll(address,address)": {
        "details": "See {IERC721-isApprovedForAll}."
      },
      "name()": {
        "details": "See {IERC721Metadata-name}."
      },
      "ownerOf(uint256)": {
        "details": "See {IERC721-ownerOf}."
      },
      "safeTransferFrom(address,address,uint256)": {
        "details": "See {IERC721-safeTransferFrom}."
      },
      "safeTransferFrom(address,address,uint256,bytes)": {
        "details": "See {IERC721-safeTransferFrom}."
      },
      "setApprovalForAll(address,bool)": {
        "details": "See {IERC721-setApprovalForAll}."
      },
      "supportsInterface(bytes4)": {
        "details": "See {IERC165-supportsInterface}."
      },
      "symbol()": {
        "details": "See {IERC721Metadata-symbol}."
      },
      "tokenURI(uint256)": {
        "details": "See {IERC721Metadata-tokenURI}."
      },
      "transferFrom(address,address,uint256)": {
        "details": "See {IERC721-transferFrom}."
      }
    },
    "version": 1
  },
  "userdoc": {
    "kind": "user",
    "methods": {},
    "version": 1
  },
  "storageLayout": {
    "storage": [
      {
        "astId": 25,
        "contract": "contracts/CYBERCATnft.sol:CYBERCATnft",
        "label": "_name",
        "offset": 0,
        "slot": "0",
        "type": "t_string_storage"
      },
      {
        "astId": 27,
        "contract": "contracts/CYBERCATnft.sol:CYBERCATnft",
        "label": "_symbol",
        "offset": 0,
        "slot": "1",
        "type": "t_string_storage"
      },
      {
        "astId": 31,
        "contract": "contracts/CYBERCATnft.sol:CYBERCATnft",
        "label": "_owners",
        "offset": 0,
        "slot": "2",
        "type": "t_mapping(t_uint256,t_address)"
      },
      {
        "astId": 35,
        "contract": "contracts/CYBERCATnft.sol:CYBERCATnft",
        "label": "_balances",
        "offset": 0,
        "slot": "3",
        "type": "t_mapping(t_address,t_uint256)"
      },
      {
        "astId": 39,
        "contract": "contracts/CYBERCATnft.sol:CYBERCATnft",
        "label": "_tokenApprovals",
        "offset": 0,
        "slot": "4",
        "type": "t_mapping(t_uint256,t_address)"
      },
      {
        "astId": 45,
        "contract": "contracts/CYBERCATnft.sol:CYBERCATnft",
        "label": "_operatorApprovals",
        "offset": 0,
        "slot": "5",
        "type": "t_mapping(t_address,t_mapping(t_address,t_bool))"
      },
      {
        "astId": 1012,
        "contract": "contracts/CYBERCATnft.sol:CYBERCATnft",
        "label": "_tokenURIs",
        "offset": 0,
        "slot": "6",
        "type": "t_mapping(t_uint256,t_string_storage)"
      },
      {
        "astId": 1717,
        "contract": "contracts/CYBERCATnft.sol:CYBERCATnft",
        "label": "owner",
        "offset": 0,
        "slot": "7",
        "type": "t_address"
      }
    ],
    "types": {
      "t_address": {
        "encoding": "inplace",
        "label": "address",
        "numberOfBytes": "20"
      },
      "t_bool": {
        "encoding": "inplace",
        "label": "bool",
        "numberOfBytes": "1"
      },
      "t_mapping(t_address,t_bool)": {
        "encoding": "mapping",
        "key": "t_address",
        "label": "mapping(address => bool)",
        "numberOfBytes": "32",
        "value": "t_bool"
      },
      "t_mapping(t_address,t_mapping(t_address,t_bool))": {
        "encoding": "mapping",
        "key": "t_address",
        "label": "mapping(address => mapping(address => bool))",
        "numberOfBytes": "32",
        "value": "t_mapping(t_address,t_bool)"
      },
      "t_mapping(t_address,t_uint256)": {
        "encoding": "mapping",
        "key": "t_address",
        "label": "mapping(address => uint256)",
        "numberOfBytes": "32",
        "value": "t_uint256"
      },
      "t_mapping(t_uint256,t_address)": {
        "encoding": "mapping",
        "key": "t_uint256",
        "label": "mapping(uint256 => address)",
        "numberOfBytes": "32",
        "value": "t_address"
      },
      "t_mapping(t_uint256,t_string_storage)": {
        "encoding": "mapping",
        "key": "t_uint256",
        "label": "mapping(uint256 => string)",
        "numberOfBytes": "32",
        "value": "t_string_storage"
      },
      "t_string_storage": {
        "encoding": "bytes",
        "label": "string",
        "numberOfBytes": "32"
      },
      "t_uint256": {
        "encoding": "inplace",
        "label": "uint256",
        "numberOfBytes": "32"
      }
    }
  }
}